:100000000C9434000C9449000C9449000C94490061
:100010000C9449000C9449000C9449000C9449003C
:100020000C9449000C9449000C9449000C9449002C
:100030000C9449000C9449000C9449000C9449001C
:100040000C9449000C9449000C9449000C9449000C
:100050000C9449000C9449000C9449000C944900FC
:100060000C9449000C94490011241FBECFEFD8E036
:10007000DEBFCDBF11E0A0E0B1E0E0E9F1E002C0F9
:1000800005900D92A630B107D9F70E9497000C9405
:10009000C6000C94000010927C00E4E6F0E0808141
:1000A0008E6F8083EAE7F0E080818FEF8083089590
:1000B000909178008091790008959B01AC0160E4F3
:1000C00072E48FE090E00E94A400BA01A9014150BF
:1000D000510961097109BB27A72F962F852F80939E
:1000E000C5004093C40088E18093C10086E08093FE
:1000F000C20081E090E00895FB019F01261B370BB1
:10010000281739071CF090E080E008952091C00086
:1001100025FFFCCF21912093C6002FE33DE043E073
:10012000215030404040E1F700C00000E6CF60E8D9
:1001300075E280E090E00E945D0060E071E084E0A4
:1001400090E00E947C00F9CFA1E21A2EAA1BBB1BF3
:10015000FD010DC0AA1FBB1FEE1FFF1FA217B30793
:10016000E407F50720F0A21BB30BE40BF50B661FA9
:10017000771F881F991F1A9469F76095709580956D
:1001800090959B01AC01BD01CF010895F894FFCF7C
:06019000546573740000C9
:00000001FF
