:100000000C9434000C943E000C943E000C943E0082
:100010000C943E000C943E000C943E000C943E0068
:100020000C943E000C943E000C943E000C943E0058
:100030000C943E000C943E000C943E000C943E0048
:100040000C943E000C943E000C943E000C943E0038
:100050000C943E000C943E000C943E000C943E0028
:100060000C943E000C943E0011241FBECFEFD8E04C
:10007000DEBFCDBF0E948A000C94C4000C94000027
:100080009B01AC0160E472E48FE090E00E94A2006A
:10009000BA01A9014150510961097109BB27A72F74
:1000A000962F852F8093C5004093C40088E18093EC
:1000B000C10086E08093C20081E090E00895FB01DA
:1000C0009F01261B370B281739071CF090E080E0B2
:1000D00008952091C00025FFFCCF21912093C600F8
:1000E000EFCF10927C00E4E6F0E080818E6F808399
:1000F00080EA80937A00089580917A0080648093EA
:100100007A0080917A0086FDFCCF909178008091F2
:1001100079000895CF93DF931F92CDB7DEB760E8E3
:1001200075E280E090E00E9440000E9471000E9411
:100130007C008983BE016F5F7F4F81E090E00E9469
:100140005F00F5CFA1E21A2EAA1BBB1BFD010DC05B
:10015000AA1FBB1FEE1FFF1FA217B307E407F50777
:1001600020F0A21BB30BE40BF50B661F771F881F53
:10017000991F1A9469F760957095809590959B01E9
:0C018000AC01BD01CF010895F894FFCF41
:00000001FF
