:100000000C9434000C9449000C9449000C94490061
:100010000C9449000C9449000C9449000C9449003C
:100020000C9449000C9449000C9449000C9449002C
:100030000C9449000C9449000C9449000C9449001C
:100040000C9449000C9449000C9449000C9449000C
:100050000C9449000C9449000C9449000C944900FC
:100060000C9449000C94490011241FBECFEFD8E036
:10007000DEBFCDBF11E0A0E0B1E0E2E2F8E002C0F7
:1000800005900D92A431B107D9F70E94C7000C94D6
:100090000F040C9400009B01AC0160E472E48FE05B
:1000A00090E00E941501BA01A9014150510961096E
:1000B0007109BB27A72F962F852F8093C5004093EA
:1000C000C40088E18093C10086E08093C20081E093
:1000D00090E00895FB019F01261B370B2817390775
:1000E0001CF090E080E008952091C00025FFFCCF37
:1000F00021912093C600EFCF9B01AC0160E472E434
:100100008FE090E00E941501BA01A9014150510908
:1001100061097109BB27A72F962F852F8093C500F2
:100120004093C40088E18093C1008EE08093C200B8
:1001300081E090E008950C946A00E4E6F0E08081AC
:100140008E7F808387E880937A0080E480937C00B0
:10015000089580917A00806480937A0080917A007B
:1001600086FDFCCF90917900809178000895809170
:100170007A00806480937A0080917A0086FF05C0BF
:100180008091780090917900089580E00895CF9350
:10019000DF9300D000D0CDB7DEB760E875E280E035
:1001A00090E00E947C002FEF83ED90E3215080408F
:1001B0009040E1F700C0000060E071E08CE090E06A
:1001C0000E946A000E949D008DE0E82E81E0F82EDA
:1001D0008E010F5F1F4F80E00E94B700282F082E6E
:1001E000000C330B3F938F93FF92EF921F930F936B
:1001F0000E943701B80184E090E00E946A0060E14B
:1002000071E082E090E00E946A002FE38DE093E0CD
:10021000215080409040E1F700C000000F900F9007
:100220000F900F900F900F90D6CFA1E21A2EAA1B1D
:10023000BB1BFD010DC0AA1FBB1FEE1FFF1FA21796
:10024000B307E407F50720F0A21BB30BE40BF50B93
:10025000661F771F881F991F1A9469F7609570951C
:10026000809590959B01AC01BD01CF010895AEE052
:10027000B0E0EDE3F1E00C94E6030D891E8986E021
:100280008C831A8309838FEF9FE79E838D83AE0152
:10029000475E5F4F6F89788DCE0101960E945A01AB
:1002A0002F813885020F131FF80110822E96E4E08B
:1002B0000C940204ABE0B0E0E0E6F1E00C94D8036B
:1002C0007C013B018A01FC0117821682838181FF38
:1002D000C8C1CE0101965C01F7019381F30193FD42
:1002E000859193FF81913F01882309F453C18532A1
:1002F00039F493FD859193FF81913F01853229F473
:10030000B70190E00E944A03E7CF912C212C312CB9
:10031000FFE1F31538F08B3211F190F4803209F1DE
:10032000833229F137FC3CC020ED280F2A3050F5EC
:1003300036FE20C08AE0989E200D1124922E06C021
:100340008D3291F0803371F7689430F8F30193FDAA
:10035000859193FF81913F018111DACF21C068948B
:1003600031F8689432F8F2CF689433F8EFCF68949C
:1003700034F8ECCFEAE02E9E200D1124222E689452
:1003800035F8E4CF8E3229F436FC04C1689436F88F
:10039000DDCF8C3619F4689437F8D8CF8836B1F2AF
:1003A000982F9F7D95549330E0F08336A1F18337E9
:1003B000C1F1833509F063C02801F2E04F0E511CF2
:1003C000F801C080D180692D70E036FC02C06FEF6B
:1003D0007FEFC6010E9434034C01689437F8820114
:1003E0000AC00C5F1F4FFFE3F98388248394912C8C
:1003F0006501E89437F833FE2DC0522C8114910426
:1004000071F5552009F468CFB70180E290E00E94B1
:100410004A035A94F6CFF801808189830E5F1F4FFB
:10042000E4CF2801F2E04F0E511CF801C080D180CA
:10043000692D70E036FC02C06FEF7FEFC6010E94AD
:100440003F034C018201D5CFB70180E290E00E94CA
:100450004A032A942814190409F0B0F7CECFF60104
:1004600037FC859137FE81916F01B70190E00E94C2
:100470004A0351105A94F1E08F1A9108BFCF843685
:1004800019F0893609F077C0F80137FE6BC060813A
:100490007181828193810C5F1F4FF32DFF763F2E78
:1004A00097FF09C090958095709561957F4F8F4F0C
:1004B0009F4F689437F82AE030E0A5010E947A0344
:1004C000C82ECA188C2C432C36FE0CC0E89440F879
:1004D000C91440F434FE05C032FC03C0F32DFE7E87
:1004E0004F2E892C44FE95C0FE01EC0DF11D80813C
:1004F000803309F087C0242D297E422E842D8870F8
:10050000582E43FC95C040FE8FC09C2C821418F4DA
:100510002C0C922C981844FE91C0B70180E390E017
:100520000E944A0342FE09C088E790E041FE02C0F3
:1005300088E590E0B7010E944A03C91408F48AC014
:10054000CA94D12C9FEFC91AD90ACA0CDB1CF60138
:1005500082916F01B70190E00E944A03AC14BD0480
:10056000B1F74FCF60817181072E000C880B990B7A
:100570000E5F1F4F92CFD32CE894D4F82AE030E0DE
:10058000853739F1232D297FD22E8F3601F148F49A
:100590008835A9F0F701868197812B96E2E10C94CA
:1005A000F403803749F08837A9F7D4FE02C0689475
:1005B000D2F820E130E00DC06894D4F8F6CF34FED4
:1005C00003C0822F8660D82E20E132E002C028E0EE
:1005D00030E0F801D7FE0FC0608171818281938184
:1005E0000C5F1F4FA5010E947A03C82ECA183D2C2C
:1005F000E89437F867CF6081718190E080E00E5F0A
:100600001F4FF0CF42FC02C0839478CF8394839431
:1006100075CF842D867809F471CFF6CFB70180E2CB
:1006200090E00E944A0383948214C0F3512C73CF4C
:10063000522C5818821408F46ECFF8CF842D867887
:1006400009F47BCF8BE241FE80E247FC8DE2B701EB
:1006500090E071CFB70180E390E00E944A039A9442
:100660006CCF8FEF9FEF99CFFC01059061507040E8
:100670000110D8F7809590958E0F9F1F0895FC016B
:100680006150704001900110D8F7809590958E0FC1
:100690009F1F08950F931F93CF93DF93182F092F58
:1006A000EB018B8181FD09C01FEF0FEF812F902F90
:1006B000DF91CF911F910F91089582FF14C02E8179
:1006C0003F818C819D81281739073CF4E881F981AD
:1006D000CF0101969983888310838E819F81019633
:1006E0009F838E83E3CFE885F985812F0995892B38
:1006F000A1F3DACFFA01AA27283051F1203181F194
:10070000E8946F936E7F6E5F7F4F8F4F9F4FAF4F19
:10071000B1E03ED0B4E03CD0670F781F891F9A1F2C
:10072000A11D680F791F8A1F911DA11D6A0F711DE0
:10073000811D911DA11D20D009F468943F912AE0EC
:10074000269F11243019305D3193DEF6CF010895D4
:10075000462F4770405D4193B3E00FD0C9F7F6CF05
:10076000462F4F70405D4A3318F0495D31FD4052CD
:10077000419302D0A9F7EACFB4E0A6959795879563
:1007800077956795BA95C9F7009761057105089542
:100790009B01AC010A2E06945795479537952795EE
:1007A000BA95C9F7620F731F841F951FA01D089586
:1007B0002F923F924F925F926F927F928F929F9271
:1007C000AF92BF92CF92DF92EF92FF920F931F935F
:1007D000CF93DF93CDB7DEB7CA1BDB0B0FB6F89410
:1007E000DEBF0FBECDBF09942A88398848885F8450
:1007F0006E847D848C849B84AA84B984C884DF80C1
:10080000EE80FD800C811B81AA81B981CE0FD11DA4
:100810000FB6F894DEBF0FBECDBFED010895F8947A
:02082000FFCF08
:100822005374617274696E672E2E2E0A002575004C
:040832000D0A0000AB
:00000001FF
