:100000000C9434000C9449000C9449000C94490061
:100010000C9449000C9449000C9449000C9449003C
:100020000C9449000C9449000C9449000C9449002C
:100030000C9449000C9449000C9449000C9449001C
:100040000C9449000C9449000C9449000C9449000C
:100050000C9449000C9449000C9449000C944900FC
:100060000C9449000C94490011241FBECFEFD8E036
:10007000DEBFCDBF11E0A0E0B1E0E2EFF1E002C0F1
:1000800005900D92A032B107D9F70E94AE000C94F2
:10009000F7000C9400009B01AC0160E472E48FE077
:1000A00090E00E94D500BA01A901415051096109AF
:1000B0007109BB27A72F962F852F8093C5004093EA
:1000C000C40088E18093C10086E08093C20081E093
:1000D00090E00895FB019F01261B370B2817390775
:1000E0001CF090E080E008952091C00025FFFCCF37
:1000F00021912093C600EFCF10927C00E4E6F0E05F
:1001000080818E7F808380EA80937A000895809139
:100110007A00806480937A0080917A0086FDFCCF1B
:100120009091790080917800089580917A008064A0
:1001300080937A0080917A0086FD09C069E171E0C0
:1001400085E090E00E946A008091780008956DE05B
:1001500071E08BE090E00E946A00ECCFCF93DF93D8
:100160001F92CDB7DEB760E875E280E090E00E94B4
:100170004B002FEF83ED90E3215080409040E1F75A
:1001800000C0000060E071E08CE090E00E946A0036
:100190000E947C000E9495008983BE016F5F7F4FA3
:1001A00081E090E00E946A00F5CFA1E21A2EAA1B1E
:1001B000BB1BFD010DC0AA1FBB1FEE1FFF1FA21717
:1001C000B307E407F50720F0A21BB30BE40BF50B14
:1001D000661F771F881F991F1A9469F7609570959D
:1001E000809590959B01AC01BD01CF010895F894D5
:0201F000FFCF3F
:1001F2005374617274696E672E2E2E0A00576169FC
:1002020074696E672E2E2E0A00446F6E650A000016
:00000001FF
