:100000000C9434000C943E000C943E000C943E0082
:100010000C943E000C943E000C943E000C943E0068
:100020000C943E000C943E000C943E000C943E0058
:100030000C943E000C943E000C943E000C943E0048
:100040000C943E000C943E000C943E000C943E0038
:100050000C943E000C943E000C943E000C943E0028
:100060000C943E000C943E0011241FBECFEFD8E04C
:10007000DEBFCDBF0E9440000C945C000C940000D9
:100080001092C50087E68093C40088E18093C10088
:1000900086E08093C20081E49091C00095FFFCCF80
:1000A0008093C6002FE33DE093E021503040904024
:0C00B000E1F700C00000F0CFF894FFCF93
:00000001FF
